:400000000040002011000000E50B0000E50B000010B500F0EFFDC046F8B5274C1223236001F0EAFB254803F09FFA012001F004FC182001F04FFB224A224B1A60224D802634
:40004000F6052E60214A116802230B431360204A204B1A600027204B1F60204A136808218B431360FA20C00001F09CFB1C4801F08FFB1C4A1C4B1A601C4B1D4A1A60FE228E
:4000800012021C490A601C4919601C490A601C4A1A60802212061B4B1A601B4B1F6042221A4B1A60023A1A4B1A600132194B1A602E6011232360F8BD30001040001BB70096
:4000C0000600008004010B400C020B4078002E402D3E00007C002E4064F02E406CF02E40DC050000005F0900080301400000014042FF00800003014040FF00800403014028
:4001000041FF008008010B4000010B4020010140140101401001014010B572B600223A4B1A600132394B1A7000240FE038486200131959000B00411889881A5AC3185888E8
:400140000004104300F010FD0134E4B2012CEDD92F4801000C31383000F0ECFC8022D2022C4B1A60EE2212062B4B1A60802212012A4B1A6099231B04294A136029492A4AAE
:40018000116080210904294A1160294A1360294A13600223284A1360284A136028490B783C22934314221343DBB20B70254A117816230B43DBB213703423234A1360D82205
:4001C000120422490A6022490B600421214B19602149224B19604021214B19600339214B19600231204B19600F2320490B6020490A60204A136001221F4B1A60FFF70CFFA8
:4002000000F0D8FC10BDC0466CF02E401C700F400059010014000B40000002400001024000500F400400990010500F4014500F4020500F4030500F402000104000800F40D9
:4002400001700F4000700F4000000440080004401800044000010440B067DB00080104400C01044000020440180204400003044008030440180304401804044010B5064C2E
:400280002378002B07D1054B002B02D0044800E000BF0123237010BD60100020000000000C500100084B10B5002B03D00749084800E000BF07480368002B00D110BD064BCE
:4002C000002BFBD09847F9E700000000641000200C500100A00B00200000000010B5034800F0A0F8012000F03FFD10BDE822002010B503F005F910BD10B5002001F0DCFA82
:40030000002001F0E5FA002001F0EEFA002001F0F7FA012003F0FAF8002003F003F900F091F862B60022244B1A70244803F0DAF8234801F025FB234801F04EFB224B1880BA
:4003400001F0D2FD00F000FD204803F0F7F8204B1870002805D0052204211E4800F044F808E000F0B9FB002804D105220421194800F03AF803F0D2FC174B1B78012B01D1AC
:4003800000F080F8154B1B78012B01D100F024FB134B1B78012B01D100F0CAF80D4B1B78012B01D100F02CF90E4B1B78012BE1D100F022FADEE7C0467C100020F1020000F6
:4003C000DD02000085060000D0220020005101003C230020F8220020E8220020E0220020D4220020F02200200378002B06D141704360837001330370C27002E00122014BF4
:400400001A707047DC2200200378002B03D003230370416002E00222014B1A707047C046DC2200200378032B03D1023B037000234360704700234360437083700370C37037
:400440007047C04610B50B4C2000FFF7F3FF03232370094C2000FFF7EDFF002208212000FFF7C2FF0548FFF7E5FF0548FFF7E2FF10BDC046E8220020E0220020D4220020E9
:40048000F022002010B51F4B5B68002B07D0013B1C4A5360002B02D11000FFF7C3FF1A4B5B68002B07D0013B174A5360002B02D11000FFF7B7FF154B5B68002B07D0013B66
:4004C000124A5360002B02D11000FFF7ABFF104B5B68002B11D0012001F01EFA0C4A5368013B5360002B08D1002001F015FA5522084B1A700648FFF795FF01210648FFF735
:4005000083FF10BDD4220020F8220020E0220020F02200203B230020E8220020034A11680F230B40184310607047C0460001044010B5304B02221A705B78012B02D0022B24
:4005400024D04FE02B4B9B78072B0BD82A4AD05CFFF7E4FF27488378013383700221FFF753FF45E0234BDB78002B08D02148013BC370002383700221FFF746FF38E00020D8
:40058000FFF7CCFF1B48FFF755FF31E0194B9B78072B0CD8184AD318187AFFF7BFFF15488378013383700221FFF72EFF20E0114BDB78002B08D00F48013BC3700023837049
:4005C0000221FFF721FF13E00020FFF7A7FF094801234370002383700B33C3700749FFF713FF05E00020FFF799FF0248FFF722FF10BDC046D422002080500100B80B00009B
:4006000010B5194B02221A70DB78002B25D0164A9278002A02D0012A0ED017E0124C013BE370052000F040FBA3780133A37064212000FFF7E9FE16E0002000F035FB0A4861
:40064000002383706421FFF7DFFE0CE0002000F02BFB0548FFF7EEFE05E0002000F024FB0148FFF7E7FE10BDF8220020002304E00021034AD1540133DBB20D2BF8D9704761
:400680001023002010B5204B1960262809D04C280CD0012836D1002001F0F6F91B4B188030E01B4B1A781B4B1A702BE08B89122B23D10C7A184B1C700022184B1A7006E0E7
:4006C0004A68D05C164AD0540133144A1370134B1B789C42F4D2134B1B78002B04D1002205211048FFF780FE074B1A6812239381101D0023002110F0E7F8034B1B6818682B
:400700000EF0DAFE10BDC04600230020042300204E24002025230020242300202623002010230020F0220020074B1B78074A1278934207D2064AD054034A137801331370C6
:40074000012000E0002070477C100020A40B00202C23002010B50B4B1C78062C0AD000200EE0094AD2181179C25C914207D10133DBB200E00023A342F3D3012000E00020CE
:4007800010BDC0467C100020A40B002010B50E4B1C78062C14D10CE00C4AD2181179C25C914203D0FFF762FF00200CE00133DBB200E00023A342EFD3FFF758FF012002E08A
:4007C000FFF754FF002010BD24230020A40B002010B50022054B1A700548FFF72BFE002001F09AF80122034BDA7010BD7C100020F0220020E022002010B54B4B02221A702C
:400800005B78052B18D14948FFF7C0FF00280AD00B2202214648FFF7E7FD012204214548FFF7E2FD04E0032204214248FFF7DCFD3D48FFF7FFFD76E0062B74D1FA214901F3
:400840003948FFF7E1FD3C4B18780A2827D005D30C2855D041D3552812D05DE0FFF764FF002807D1062204213248FFF7BDFDFFF7AFFF58E0012204212E48FFF7B5FD52E0BE
:40088000042204212B48FFF7AFFDFFF7A1FF4AE05A1C2A49C95C2A4B9954D3B200E00023052BF5D926495A230B704B33CB71254B0822002000F01CFD234B1870002804D04C
:4008C000052204211B48FFF78FFD012204211948FFF78AFDFFF77CFF25E01848FFF73AFF002805D00B2202211148FFF77DFD04E0032204210F48FFF777FDFFF769FF12E047
:40090000124B1B78124A1370042B0CD1002001F0BBF8104B188006E0062204210548FFF763FDFFF755FF10BDF022002010230020D4220020F82200203B2300202C23002076
:4009400040230020102600203C2300204E24002025230020042300200100002008E00D2808D04300044A9B5A8B4203D00130C0B20D28F4D97047C0469050010070B5144ED8
:40098000002400251FE01F232B4001229A4011006A091048043293001A580A40C3185B6813420ED0300001F033FB04003100280001F0E4FB002C04D02100280002F00AFD55
:4009C0000624203601350B2DDDD9200070BDC046345B01005824002010B502223B4B1A7001F0A6FE002869D1384B5B78072B36D1FFF7C4FF002861D101F032FC334B9B7892
:400A0000002B02D0012B24D058E0002817D080B2FFF7A2FF2E4B18700B284FD801222B4B9A702C4B1B78002B05D1002206212948FFF7DAFC42E02748FFF7F4FC3EE0234BF7
:400A4000DB78012B3AD1214B08225A700022DA7034E0002832D100221C4B9A702EE00C2001F05CFA002829D101F0FAFB174B9B78002B02D0012B1AD020E080235B01984264
:400A80001CD180B2FFF768FF114B187001220F4B9A70104B1B78002B05D1002206210D48FFF7A2FC0AE00B48FFF7BCFC06E0002804D1064B00229A7007325A7001F07CFE75
:400AC00032210248FFF7A0FC10BDC046E02200203B230020F022002010B5124B08221249002000F0EDFA114B1870002817D10E4A1378D2795A3B59424B41A53A51424A41A9
:400B00001A4207D10CE05A1C0749885C0849C854D3B200E00023052BF5D9012000E0002010BDC04610260020402300203C230020A80B0020F0B50025002711E0BB00C6581E
:400B4000F3B2FF22964308E06A008A181478A419527822700135013BDBB2002BF4D10137042FEBD9F0BDC04610B50A00002103F099F810BD0C4B1B68002803D0802212069C
:400B8000134301E05B005B08074A1360074B1B68002803D080229204134301E0044A1340024A13607047C04680033A4008010B40FFFFFFFD10B50323064A1360064A136064
:400BC000064A13600022064B1A600120FFF7D2FF10BDC046082102403000304030003140000E3F4010B503F019F803680C2B00D1FEE7FEE770B50F4E0F4D13E029686B6816
:400C0000AC68002202E001C901C30432A242FAD1E868002202E0002102C304328242FAD11035013E002EE9D102F0FEFFFFF764FBFEE7C04601000000DC5F010010B50E4A35
:400C4000136801218B43136000230AE0032B03D89A000A49505800E009489900094A885001332F2BF2D9FFF757FA034A116801230B43136010BDC046000010400000000088
:400C8000E50B0000000000200004000C014B18607047C046480120400004000C014B18607047C046540120400004000C014B18607047C0464C01204070B504000D0002F03E
:400CC0005CFCAC40024B1C6002F05BFC70BDC0460800204010B502F050FC064A116802230B43136002F04DFC18210220FFF7E4FF10BDC04600002040014B18607047C0462E
:400D00007801204010B50D4C8023DB042360236823600020FFF7B8FF236823600C22084B1A600120FFF7E8FF3122064B1A600920FFF7B2FF0020FFF7B7FF10BD40012040AD
:400D4000640120406801204010B5064B1B78002B04D1FFF7D7FF0122024B1A70FFF7BAFF10BDC0467D100020014B18607047C0467001204070B58A6902600024002508E04A
:400D80001368002B03D09D4201D202601D00803201340B694E6873439C42F1D370BDC0468B6903E080330A68934203D21A688242F8D100E0002318007047C04630B5002853
:400DC00002D00C6880340C600C681D68AC4201D39C690C60002414605C68A04216D31D69012D11D90868E101411A9B69994209D207498C4665446C43E4011C19C01A24188B
:400E0000146003E0116001E00B68136030BDC046FFFFFF0130B505000024FF2014E02B5D584000220CE043B2002B05DA4000C3B231204340D8B201E04000C0B20132D2B287
:400E4000072AF0D90134A4B28C42E8D130BDC04610B5C468026891093F23134000D001235B1842685343027A01325343DB01E318002C05D080229202934203D9032002E019
:400E8000032000E0002010BDF0B5059C002515609D01A54206D85E1CB601013EB44203D9002602E0002600E00126002E1ED03F22224040320260069884466444A54206D800
:400EC00001339B01013B9C4203D9002302E0002300E00123002B05D0069B9C4662440A60002021E080230B6000201DE0069FE719BD4205D801339B01013B9F4200D80126B4
:400F0000002E10D040230360069B40333F252C40403C1C190C6003681C1B069B9C4664441460002000E00120F0BDC04610B5C00900F038FB002801D0042000E0002010BD2C
:400F4000F0B5A3B00400836800931D680126002723E0009E8022310001A802F09AFE01350195402111A8FFF755FF1090220001A93000FFF7DBFF009BA269981A23689C461C
:400F80006044220001A9FFF7D1FF0600230021AA69462800FFF712FF01372369626853439F42D6D3300023B0F0BDC046F0B5A5B006000191029203932A9FBB69C41A3B689B
:400FC0009C466444C56B40304021FFF723FF854207D1029BF118039A019802F05AFE00241EE0E56B200040304021FFF713FF854215D18022210004A802F04BFE3A0004A9E0
:401000003000FFF793FF041E0AD1029B990004AB9C466144039A019802F03BFE00E00224200025B0F0BDC046F8B504000D1E3BD000283BD0C368002B3AD043680A2B39D815
:401040000768002F38D0FFF703FF061E35D1EF6063682B61237A2B75637A6B75E368AB61226891093F23134000D001235B186B6062685343DB01E2689B182B602C0008347A
:4010800029002000FFF776FEAB681B68002B14D12B7D002B11D02800FFF752FF060029002000FFF767FE08E0012606E0012604E0012602E0012600E001263000F8BDC046E8
:4010C000F0B55F4656464D464446F0B48BB08146079192461F000B000691002A00D1F6E04A440892F868824200D9F3E0002B00D1F3E0BC6823680993531E9B094A469209F3
:401100009B1A01339B46BD69601B7E68F10102F00FFC7043C0012B18039300254A460FE0AB019A4206D36B1C9B01013B9A4203D9002302E0002300E00123002B05D10135A3
:40114000B542EDD39146002500E09146039BE31ADB09190005933B69012B09D95B46EB18013B8D4207D8994208D20123049307E00023049304E00123049301E0002304934A
:40118000C846079B0026012210004A460792B946474698463EE0E801039B9C4660443F243C40220040320136B34502D940231C1B00E05446049B002B0FD0059B9D420CD9CA
:4011C0004B465B68D901401A49468969884204D2581BC30149460968C81A4B461B7D002B0CD04B46009323004146FFF7DFFE00280AD082464F46079B994611E081182200D0
:40120000404602F046FD00203F1953461B1B9A46A04401355E45BED382464F46079B99465346002B5BD1099A002A58D07B6814009A4200D91C00013C099B1C1B089A904663
:401240001D0003974F463FE003992000FFF7A8FD002838D046688368F318B74203D246459241524202E09F4292415242002A2AD0B74201D3BA1B00E00022B74202D2F11B4D
:401280008C4601E000218C463900B74200D231000C324646984500D91E00731A069961440E000399097D002908D0039900913100FFF77CFE8246002805D010E081181A007D
:4012C000300002F0E6FC0134AC42BDD907E001239A4604E001239A4601E001239A4650460BB03CBC90469946A246AB46F0BDC046F0B55F4656464D464446F0B4ADB0824623
:4013000093461D0000230B930A93AB6809930391131E00D1A7E05344EA68934200D9A4E0002900D1A3E05B46581E302102F000FB0300059001330493002307939946012080
:401340008CE0099B1C682B0008AA09A92000FFF735FD802200210CA802F0A4FC631C98460C9353460D930399059B994502D15B460E930AE030230E93603B9C46E344603380
:401380009C46E244039B303303930E9A0FA802F080FC0899002904D0403140221CA802F078FC6C68A04503D943461C1B013400E00124002735E0444501D10CAE04E0290039
:4013C0002000FFF7EDFC0600099BAA69981AC009696802F033FB002E0BD07368B268019200930B0007AA0AA90BA8FFF74DFD070000E00137002F0BD10B9A0CAB9818079B67
:401400009C46664431000C310A9B9A1A02F041FC2B7D002B04D040211CA8FFF7FBFC1B9001344445C7D92A000CA90998FFF77EFD2B7D002B0BD0002809D1099BAA69981A5E
:401440002B689C4660442A000CA9FFF76FFD00280ED1099BAB6001239C46E144049B994500D26EE704E0012002E0012000E001202DB03CBC90469946A246AB46F0BDC0466E
:4014800082B0144B0093144B04330193134B6A461A601349134A1160C0461B681B0F1B07F0221206934204D10C4B1B68FF2018400DE00A4B1B681B0F1B07A0221206934272
:4014C00004D0064B1B68FF20184000E0002002B07047C046B6E9000080100020080010401600008004001040104B114A1A601149114A1160C0461B681B0F1B07F022120678
:40150000934204D1094B1B68FF2018400DE0074B1B681B0F1B07A0221206934204D0034B1B68FF20184000E00020704708001040B6E80000150000800400104082B0144BB3
:401540000093144B04330193134B6A461A601349134A1160C0461B681B0F1B07F0221206934204D10C4B1B68FF2018400DE00A4B1B681B0F1B07A0221206934204D0064B1D
:401580001B68FF20184000E0002002B07047C046B6EA00008010002008001040170000800400104030B5A5B004000023239322933F4B984277D8002975D0802202A802F004
:4015C00068FB3C4B9C4201D93B4B00E03B4B00937F2301933A4B6A461A603A493A4A1160C0461B681B0F1B07F0221206934204D1334B1B68FF2213400DE0314B1B681B0F39
:401600001B07A0221206934204D02D4B1B68FF22134000E000232393239B002B45D101F0ACFF0500FFF72CFF2290229B002B02D1FFF75AFF2390239B002B25D1234A0092CF
:40164000009A2404144300941D4A6946116020481D490860C0461268120F1207F02109068A4204D1164B1B68FF2213400BE0144A1268120F1207A02109068A4203D0104B66
:401680001B68FF2213402393229B002B07D1FFF755FF2290229B002B01D0229B2393280001F06FFF01E004232393239825B030BDFF030000FF010000B6D70001B6D70000B6
:4016C000080010400400008004001040B6D800000500008010B586B0040001F04EFF0E4B1B6800930D4B1B680193033C0C4B1B5D02930C4B1B68039304AA0B4B04936B462D
:4017000005930A4B1A600A490A4A11601B6801F038FF06B010BDC04608010B4000010B404C59010030001040B6EA0000080010401700008004001040024B1B680120184004
:401740007047C0460C002E401F2318401E3B8340014A13607047C04600E100E001BE704710B5040006E0084B586801F0FDFE074B9C46644480231B029C42F4D8024B986889
:40178000604301F0F1FE10BDB80B00200080FFFF10B5034B1B7B584301F0E6FE10BDC046B80B002010B504000F4A116801230B4313600E4A0E4B1A600E4A1368802109027F
:4017C0000B431360002809D100200CE00120FFF7DFFFFFF7B1FF002804D1013C002CF5D1102000E0002010BD60F02E400220000078002E4010002E4010B50D4B1A68012151
:401800008A431A601A68022082431A60094A10683024A043203C204310601068093CA043014311601A68802109060A431A6010BD00F02E4000FF2E4070B51D4B1B68012432
:401840001C40002802D0012816D02BE0184B19680122914319601968022081431960154B19682E3081432038014319601968093881430A431A6018E00D4B1A6802218A439D
:401880001A600C4A10680725A84301431160116830208143103801431160196801220A431A6002E00020FFF759FF200070BDC04600F02E4000FF2E4004490A68D2B210233B
:4018C0009A43000118401043086070470001044004490A68D2B220239A43400118401043086070470001044004490A68D2B240239A43800118401043086070470001044035
:4019000004490A687F231A40C301D8B2104308607047C0460001044004490A68D2B202239A4340001840104308607047000104408823014AD05070470000002010B5040097
:4019400001F01BFE044A1168044B0B40A4051C43146001F016FE10BD10E400E0FFFF3FFF8022D202014B1A607047C04600E100E08022D202014B1A607047C04680E100E0AA
:4019800010B50400FFF7F4FF2000FFF7D1FF0220FFF7D4FFFFF7E4FF10BDC04610B500F08DFA10BD10B50024064B1C70064B1C70064B1C70FFF7F2FF054B1C70054B1C70D0
:4019C00010BDC046572400205024002056240020402400204824002010B590B00400142220490BA802F055F920231F4AD35C002B05D1FFF7D7FF012120231B4AD154002CDD
:401A00002DD01A4B1C6008A805AA426006AB0893002101811B311980598017391971002313701231694402F055FA002818D1104B0293104B0193052300930BABAE22120125
:401A40000D490E4802F09CF9002809D101220C4B1A700D3213210B480EF01EFF00E0012010B010BD7C59010094100020442400207902000080680100C0000020E51B000058
:401A80004E2400209059010010B502282FD81C4B1B78042B2DD11B4B1B785B072CD4002809D1194B1E221A860232596A0A805B6A10325A800CE001280AD1134B5A221A8620
:401AC000C822D200596A0A805B6A8022D2015A800E4B18700C4820300CF014FB00280DD1084A117804230B43DBB2137006E0012004E00420FF3001E00420FF3010BDC0468E
:401B00004E24002057240020CC0B0020562400207047C04603784078000218437047C04670B5050083890F2B1FD1043031332A0000210EF0C9FE041E11D16868FFF7EAFF22
:401B4000830706D50A4B1B68290082204000984705E0074B1B6829000620FF309847054A137801218B43137000E00024200070BD4424002057240020024B00225A701A70A3
:401B80007047C0465424002010B582B00400FFF7C7FF0A4B1B78DB070ED4002809D001A912238B70A3890B80C87020680DF00CFC02E020680DF080FC02B010BD5724002019
:401BC0008379002B07D000200BE0C25C002A07D10133DBB200E00023052BF6D9002000E001207047F0B583B004000D00A04A117801230B43DBB21370272800D1C2E012D897
:401C0000062800D185E004D8012821D005287CD01DE1242800D1B1E0262800D1BAE0212800D014E189E0422800D1FCE006D8282800D1ABE0412800D1E0E008E14C2800D12C
:401C4000FCE0FA2800D1FDE0432800D0FFE0EDE001AE0727377000237370300004F046F8377001237370300004F040F802F04EF8804B1E683000FFF7A3FF00280CD0300056
:401C800002F050F87B4E00213068FFF741FF30680121FFF73DFF2AE0774B1F78774B18788001FC263601020032403F2139401143734B1B781B03F822520213401943714BCE
:401CC0001B785B04FE22120413400B436E4E33701A0A72701B0CB370300002F023F800213000FFF715FF01213000FFF711FF00200CF0ACF801A83F230370002343700CF06C
:401D0000C3F80422614B1A70A1E02A78604B1A709DE02B78002B00D099E06B78002B06D15C4B0022DA809A805B4A1A606B60504A137801218B43137089E04D4B1B789B06C7
:401D400000D584E0554B1B78102B02D10522534BDA70534B187851490CF096F901AB1880002804D04F4B1B6801A936209847404A117801230B43DBB2137068E06A784A4BF7
:401D80001A7064E00222414B1A7060E004223F4B1A705CE03D4B1B78022B58D0344A1278D20754D5324A1278520708D50322374B1A702F4A137804218B43137047E02C4A67
:401DC0001278120708D50422304B1A70284A137808218B4313703AE0032B38D104222B4B1A70324B1B78002B31D10120FFF74CFE00282CD10322254B1A7028E0284E0222C6
:401E00002900300001F045FF0022214B1A7031783D31FF314900264B591801310232254801F037FF13E0FFF7A7FE10E06988162900D9172128880DF0D1FA08E02800FFF753
:401E4000A3FE04E01C4A117801230B431370084B1A7811231A4209D0054A137801218B431370104B1B6829002000984703B0F0BD57240020000C00207CF1FF0F7DF1FF0F3A
:401E80007BF1FF0F78F1FF0F040C00204E24002050240020B8100020A00B00208C0C002054240020442400204824002056240020806801004C240020402400207047C04670
:401EC00010B5084B1B78002B06D100F089F900F0D7F90122034B1A7000F054F800F0D2FD10BDC046C010002010B5FFF7E9FF041E02D100F061FD0400002C02D100F05CFC19
:401F00000400002C03D100F013FC0028FBD100F0ABFA00F007FA200010BDC04670B505000C2801D8002400E00124002C0FD11F232B4001229A4011006A0910480432930076
:401F40001A580A40C3185B68134200D11134002C11D16E010A4BF618300000F059F804003100280000F00AF9002C04D02100280001F030FA0624200070BDC046582400207E
:401F8000345B010070B500230CE019489A1D920000211150191D8A00012149421150821851600133002BF0D0124C0D231CE06668A27E0F4B5B1900211977012A02D0062AD5
:401FC00008D00FE0206900280CD0717A228B01F069FE07E02069002804D0717A228B520001F060FE20342B005D1E002BDFD170BD58240020345B010030B50B884A889C1ACA
:4020000000250D818079844200DD0C8130BDC046F0B55F464646C0B483B00700837E062B02D10122934601E000229346FE68BC687A68009201930025002398461EE0019A1F
:402040002100300000F03CFB019A2100009800F09BFA002806D04346002B03D180231B062B43984621000098FFF7C6FF0C345B46002B01D10C3600E00C3601353B8B9D42E8
:40208000DDD3404603B00CBC90469B46F0BDC046F0B50A8B8D684F680B69012125E00C00044003D1BE883A7AB21802E0BA883E7A921B2E89B24201D3002200E00A00A242A4
:4020C00002D01E78013E1E70A24202D01C78002C07D188431043002A01D17A7A00E001221A7049000C3501336246541EA446002AD5D1F0BDF0B54F464646C0B48B68994677
:402100004D680A69098B490001232CE049460E89A988194C234203D1E9890C24A046C1441C00044003D12F7AB846414401E02F7AC91BB14201D3002100E01900A14202D084
:402140001678013E1670A14202D01478002C07D198430843002901D1697A00E00121117001325B0061464C1EA4460029CED10CBC90469946F0BDC0465555555570B5040042
:402180008A7E164B1B181D7F012A02D0062A05D009E02800FFF77CFF050007E02800FFF7A9FF050002E00020FFF7D8FA0B4B1B191D7763091F2214401E3AA240002D06D185
:4021C000064906339B0058589043585005E0034906339B00585802435A5070BD5824002070B5194CD82252000021200001F05AFD164B2380164BA380022363852A330222AF
:40220000E254243BE385134B238620003230B8221149403101F03DFD104C2100103120340D230CE0A268238B04E00B78D37201310C320300581E002BF7D120342B005D1EE0
:40224000002BEFD170BDC0465824002046740000B80B0000C61D0000945C0100145B01000123002005E0931D9B0004495B58184313005A1E002BF6D17047C046582400203E
:402280000023024AD380024A136070475824002094110020FF231940062903D083180021997102E08318002199715300195AC3185980C94399808218002393727047C0467C
:4022C00070B506000D00012305E0220029003000FFF7E0FF23005C1E002BF6D170BDC04610B54001054B1B184A00511888009A6894466044997EFFF7E3FF10BD345B0100FB
:4023000070B505004301064AD3181B8B04E021002800FFF7E5FF23005C1E002BF7D170BD345B010010B50D2303E02000FFF7E8FF23005C1E002BF8D110BDC04670B5012378
:402340000FE0FF231340062B05D063005E5A1B199D002E5204E063005E5A1B199D002E5223005C1E002BECD170BDC046F0B5012315E0FF231340062B08D065006F5A2E19CE
:40238000B300C3185F806D5A9D8007E065006F5A2E19B300C3185F806D5A9D8023005C1E002BE6D1F0BDC046F0B5012319E0FF231340062B0AD065006F5A2E19B300C318A8
:4023C000DF806E5A1E816D5A5D8109E065006F5A2E19B300C318DF806E5A1E816D5A5D8123005C1E002BE2D1F0BDC046F0B5474680B480464301154AD3181B8B1FE0434605
:402400005A01124B9B187A00D21991009A685518DC689E7E062E01D0641800E06418320029002000FFF78AFF320029002000FFF79DFF320029002000FFF7B6FF3B005F1EAA
:40244000002BDCD104BC9046F0BDC046345B010010B50D2303E02000FFF7C8FF23005C1E002BF8D110BDC04610B5FFF7F1FF10BDF0B501232FE0FF231340062B15D0670050
:402480007B5A9C463E19B300C318DD8865441E89B44665445E89AD19AD0866465E81DE881E817E5ADE80CD5314E067007B5A9C463E19B300C318DD8865441E89B446654491
:4024C0005E89AD19AD0866465E81DE881E817E5ADE80CD5323005C1E002BCCD1F0BDC046884202D9030008001900914200D91100884200D208007047F8B55F4656464D461A
:402500004446F0B480460E009346012329E0FF235A461340062B10D06F00B85B7B199C00444463889946A2881900FFF7D9FF4B46A380BB5B6380F05312E06B009A46985B38
:402540005B199C00444463889946A2881900FFF7C7FF4B46A38053469B5B63805346F0522B005D1E002BD2D13CBC90469946A246AB46F8BD9840504380235B009A1A514399
:402580004018000A7047C046F0B54F4680B482B001900E0015000024012356E07B00F3189A885988CB439BB29A424BD17B00985B814206D8431A9946F31900229A720123A5
:4025C00002E00B1A99460023002B12D1019AD37999450ED9F3199B7A927A934205D33A0029003000FFF756FE26E0F2190133937222E0FF232B40062B0FD00902F319994682
:402600009B79194308230122FFF7B4FF020A7B00F3185A804B4698710EE00902F31999469B79194308230122FFF7A4FF020A7B00F3185A804B4698717B00F3185A88D2436F
:402640009A8001E0802424063B005F1E002BA5D1200002B004BC9146F0BDC046F0B5474680B407000E009046012322E0FF2342461340062B0ED06500A85B2A199300D95B27
:4026800000238022FFF776FF80B22A199300D853A8530DE06500A85B2A199300D95B00238022FFF767FF80B22A199300D853A85323005C1E002BD9D104BC9046F0BDC04653
:4026C00070B504000D001600FFF716FF320029002000FFF7C3FF320029002000FFF7C8FE70BDC04630B5084803680F24A3431900064D2B780F2213400B43E13293432A78C1
:40270000A2431343036030BD00FF284062F1FF0F10B5FFF7E7FF10BD10B5044A13680F218B43136000F050FB10BDC04600040240024BDB68802018407047C04658240020A4
:4027400010B5114BDB68DB0312D40C2812D81F23034001229A40110042090B4C043293001A590A40E3185B68134205D1012404E0112402E0012400E00024002C01D100F038
:4027800035FB200010BDC0465824002010B5084BDB68DB0307D4074B1B78012B05D100F0AFFA002003E0112001E00120404210BD582400209811002010B50F4BDB681B0659
:4027C00018D400240120404211E02000FFF7B8FF00280BD10B2C03D80122084B5A7002E00022064B5A70FFF7D1FF04E001340C2CEBD900E0112010BD5824002098110020D5
:4028000010B50400144B1B78834223D0012B02D1FFF782FF07E0022B05D0042B03D0032B01D100F0F7FD012C05D100F085F90122094B1A700EE0022C0CD0042C0AD0032C3D
:4028400005D100F0F1FD0322034B1A7002E00022014B1A7010BDC0469811002030B500200D4B16E019680A685C69A2430A605C6822689D7F0721A9408A4311000622AA406C
:402880000A432260D9680A689C69A2430A60203301300C28E6D930BD905D010010B51B4A93780133DBB293709078C0B2FFF748FF041E09D1154B9B780C2B02D10022134B47
:4028C0005A70FFF763FF1EE0104B9B780C2B11D10F4B1A8901321A81DA6880218A43DA60DA681202120ADA60DA6804061443DC60002408E0064AD3681B021B0AD360D168AC
:4029000003060B43D360002CC9D110BD9811002058240020074A084B1A6001380002074B1860054B1B68002BFBDB054A024B1A607047C04640000040000001400003014046
:4029400040FF0080074A084B1A6001380002074B1860054B1B68002BFBDB054A024B1A607047C04641000040000001400403014041FF008070B504001F23034001229A4059
:40298000110042090B48043293001A580A40C3185B68134201D0002500E01125002D07D15521200000F0ECFA0500200000F002FD280070BD5824002070B50024002504E01C
:4029C0002000FFF7D7FF054301340C2CF8D9280070BDC04670B5002510E06B01094A9E58002404E06001301800F0CEF901346B01044AD3181B7E9C42F4D301350C2DECD967
:402A000070BDC046345B0100014BD88D7047C0465824002010B52C230A4AD45C0203121A2B3B8B40013B63439A4205D90202101A834203D3402002E0C02000E00020C0B2D6
:402A400010BDC0465824002010B50C00FFF7DCFF40006188FFF7DEFF207310BD10B500240AE06301064AD31859682000FFF7ECFF200000F09FFC01340C2CF2D910BDC046FF
:402A8000345B010010B5FFF743FEFFF7E7FFFFF7E5FE0020FFF7B4FE002010BD014A024B1A6070470002000108002840044A1168044B0B40802189000B4313607047C046DB
:402AC00008002840FFFCFFFC014A024B1A607047000200010800284070B50E001500438801249C40013CA3001B195800642100F01FFF013083199C4200D22300B04201D8B6
:402B0000301A00E00020A84203D8AB4203D2062002E0062000E0002070BDC04610B5054AC02314689C43204310600800FFF70AFF10BDC046940C002010B5FFF74BFFFFF7A9
:402B4000ADFF07490B680F229343093A13430B60044B1B68044A1343044A136010BDC04600040240940C00202008E8810400284070B50B30040000F000FD094D2968094B42
:402B80001940094B1A78A35C084C2468A218D27A120413430B432B6000F0F3FC70BDC0460800284000FF80FF305F01000826002010B5094B1B785B01084AD3185B68084A74
:402BC000D18D187B431FDBB2012B02D8490800D10131FFF7A3FF10BD9A110020345B010058240020428801239340013B1B04014A53607047940C002070B500F0BEFC0400DB
:402C00001E4B1B681E4A13431E4A13602C231E4AD05CFFF77FFE1D4A1D4B1A601C4B1B68002BFBDB1B4A1A4B1A601B4E3568272000F09AFC194B2B40194A13433360E1234F
:402C4000DB0100E0013B174A1268120701D4002BF8D1114B1D60094D134B2A681343094A13601020FEF770FD6F2000F07DFC6A680E4B1A60200000F084FC70BD940C0020B8
:402C80002008E8810400284058240020410000400000014041FF00800800284000E8FFBFF0060040100028402018E8810C00284010B5044AD36804490B43D360FFF79CFF73
:402CC00010BDC046582400208000010070B50400857F067F00F051FC23681B680F22B24093431A000423B3401343666832680721A9408A4332602268136000F042FC70BD34
:402D000070B5134E3378134D5B01EB185868124C0023237033785B01EB1899682378DBB25A00D3189A008A180C4B1A60FFF720FF33785B015B59207840011818084B1860A6
:402D4000FFF7C4FF074800F09BFBFFF7B1FF70BD9A110020345B01009B110020082600200C2600209536000010B54001044BC05849014018034B1860FFF7A8FF10BDC0461B
:402D8000345B01000C26002070B50400007FA57F21680B680F22824093430B6000F0EDFB61680B680722AA4093431A000623AB4013430B6000F0E5FBE1680B68607F0122BB
:402DC000824093430B6070BD10B5064B1B78012B06D1054B1868FFF7D7FF0022014B1A7010BDC0469C1100200C26002070B5104E4301F3185D68C0B20E4C20700120FFF767
:402E0000FFFCFFF7E1FF23785B019A590A4B1A600A4BDA687F218A43DA602178DA680A43DA602800FFF7DEFEFFF7C2FE70BDC046345B01009A1100200C260020582400203C
:402E400070B54301114AD3185D68C9B2104C217099682378DBB25A00D3189A008A180D4B1A60FFF7C3FF2800FFF782FE20780A4B40011A68944660441860FFF727FF0122BF
:402E8000064B1A70064800F0FBFA70BD345B01009B110020082600200C2600209C11002051360000F0B5474680B482B007000E0090462C4A13785B012B49CB185B680193F9
:402EC000002333701078C0B2284B1978C9B2FFF7B7FFFFF7EBFD002480256D00BC4202D23378AB4333706D0833782B4333700198FFF73EFEFFF7DCFEE123DB0100E0013BFD
:402F00001B4AD268120601D5002BF8D1194B1B681C88002DE2D1134B1B785B01124A9858124B1B785B01C018134B1860FFF72CFF0022124B1A70FFF7C7FD2200390001983A
:402F4000FFF7CAFD43461A7833789A4201D242461370084B1B683278DA7202B004BC9046F0BDC0469A110020345B01009B11002058240020082600200C2600209C1100201D
:402F8000F0B54F4680B484B0040089464301364AD3185F68012003AB18707B88984001384843642100F0C4FC0190E2B22F4B1A702F4800F065FA3E000B3600222D4B1A7069
:402FC00000250AE003AA31000198FFF76BFF0543284A13780133DBB213706301224AD318DA7E244B1B78DBB29A42EBD803AB1B7801335B08FB7200221E4B1A7022E0630161
:40300000194AD3189E681B4B1B78DBB25A00D3189A00B618184B1E60F37AF87A83420AD31B1AD8B2F0724B4658436330642100F07FFCF07201E00023F3720E4A13780133F5
:40304000DBB213706301084AD318DA7E094B1B78DBB29A42D3D80022064B1A70280004B004BC9146F0BDC046345B01009A110020513600009B1100200826002070B588B0D0
:4030800004000D0020221049684600F002FE002013E0050B227813096B400F252B405B006E469B5B00014340180B42402A405200905B1B01584001340D00691E002DE8D16B
:4030C00080B208B070BDC046345F01000122094B1A60094B1B689BB2084A1380084AD168084B0B40D360084B1B68084A1343084A13607047140028400C0028409E11002010
:40310000582400207FFFFEFF9C0C00202008E88104002840FF2318400233FF331843014B186070470800284010B500F026FA044A13680F218B43136000F023FA10BDC0469D
:403140000004024070B505000C0000F016FA69680B68AD7F0722AA409343AC401C430C6000F00FFA70BDC04670B50600054D002405E031002800FFF7E5FF203501340C2C1C
:40318000F7D970BD905D010070B505000C0000F0F4F92A68136869698B43297F8C401C43146000F0EEF970BD70B543011E4AD3185B695B0709D540018458890061180C88A6
:4031C00064011A4BE4188E7805E04001164BC458490164180126002523E0154B9B78032B08D100212000FFF7CFFF06212000FFF7A9FF14E0042B08D100212000FFF7C4FFF1
:4032000006212000FFF79EFF09E0052B07D100212000FFF7B9FF06212000FFF793FF20340135AE42D9D870BD345B0100905D01009E11002070B500250DE021002800FFF7EA
:40324000B3FF013400E000246B01044AD3181B7E9C42F2D301350C2DF5D970BD345B010010B504000B4BDB78834211D0022807D0032809D0012809D10620FFF775FF05E0F3
:403280000020FFF771FF01E0FFF7D4FF014BDC7010BDC0469E11002070B505000C0000F06CF9EA681368A9698B43697F8C401C43146000F066F970BD70B50600054D0024C8
:4032C00005E031002800FFF7E7FF203501340C2CF7D970BD905D010010B5FFF733FB10BD10B5174B9B78062B0AD000F046F915490B680F229343093A13430B6000F041F9D7
:403300000F4B9B78062B05D00F4B1B680F4A13430F4A13600020FFF7FDFE094B9B78062B03D04020FFF7D8FF06E0074B1B68802212061343064A1360064800F0A1F810BDE7
:403340009E110020000402409C0C00202008E88104002840CD30000010B50400144B9B78834223D0032B01D1FFF7DEFE104B9C70022C0CD002D8012C05D017E0032C0AD064
:40338000062C0ED012E00220FFF76AFF0EE00120FFF766FF0AE0FFF7A3FF0320FFF760FF04E0FFF79DFF0220FFF75AFF10BDC0469E11002010B50C2808D84001044B181804
:4033C0004468A01C0C21FFF759FE208010BDC046345B010030B543091F2404400122A2400B4C04339B00E3185D6895435D60C4235B00E358DA060AD4220010242343793409
:40340000FF3413519623FF33D0540133D15430BD5824002010B50020FFF79EFF0022014BDA7010BD9E11002010B50020FFF744FF10BDC0468023014AD05070470000002062
:4034400010B5040000F099F8044A1368C0218B43A4011C43146000F094F810BD10E400E080225202014B1A607047C04600E100E080225202014B1A607047C04680E100E001
:4034800010B50400FFF7F4FF2000FFF7D3FF0120FFF7D6FFFFF7E4FF10BDC046014B58647047C0460000002010B5040000F065F8044A1168044B0B40A4031C43146000F014
:4034C00060F810BD00E400E0FF3FFFFF0222014B1A60704700E100E00222014B1A60704780E100E010B50400FFF7F6FF2000FFF7D5FF0320FFF7D8FFFFF7E8FF10BDC04625
:403500000222014B1A60704780E200E004490A68D2B240239A43800118401043086070470003044004490A687F231A40C301D8B2104308607047C0460003044000B585B0E1
:4035400000236A4653720133FF330093FF3B137201330193039003496846FDF765FD05B000BDC046102600200230800803D00138FDD1C046C046C0467047EFF3108072B68B
:40358000704780F310887047044B1A68044B1B78044909685B00D1527047C04608260020305F01000C00284070B5224B1A78224952018A1850681B785B01CB181A7E013AB3
:4035C0001E4B1B78DBB29A421CD91C4C23780133DBB22370174D2B785B01CB1899682378DBB25A00D3189A008A18154B1A60FFF7BFFA2878C0B22178C9B2FFF7B5FBFFF7DF
:40360000FBFA16E000220D4B1A700E4AD1680E4B0B40D3600D4B1B78012B02D1FFF73EF907E0084BDA6880218A43DA601A8901321A8170BD9A110020345B01009B11002033
:403640000826002058240020FFFFFEFF9911002010B50122094B1A60FFF796FF084B1B68084A1343084A1360084B1A8901321A81D968074A0A40DA6010BDC04614002840EE
:40368000940C00202008E88104002840582400207FFFFEFF10B50D4B1B785B010C4A9B580C4A147864011C1901220B4B1A60FFF76BFF0A4B1B680A4A13430A4A13602000A9
:4036C000FFF762FBFFF770FF10BDC0469A110020345B01009B11002014002840940C00202008E8810400284010B5FFF746FF044A136804218B43136030BFFFF742FF10BDBD
:4037000010ED00E00160704701607047324B1A781202324B1B781A43314B1B781B02314909780B4330498B4201D1072A06D0D42109018B4206D1042A04D102E02B4B042234
:4037400000E02A4B2A490B602A4B1A602A4B1B781B022A4A1278134380229201934202D0002B02D002E0264B00E0254B254A1360254B1B781B02254A12781343244A93429E
:4037800005D0244A934204D0052B05D103E0224B02E0214B00E0204B204A1360204B1B681B09204A1268AA2A15D1012B13D9164B1B780E2B0FD11C4B1B781B021B4A127876
:4037C00013431B4A13601B4B1B781B021A4A127813431A4A13607047D9F0FF0FD8F0FF0FDFF0FF0FDEF0FF0F580B0000580D00006C002E4074002E40DBF0FF0FDAF0FF0F18
:403800000220000078002E40DDF0FF0FDCF0FF0F0F0F000005050000050F000080002E40EC0F00F0E00F00F06DF2FF0F6CF2FF0F84002E406FF2FF0F6EF2FF0F94002E402D
:4038400010B5FDF7A5FF10BD10B5FDF789FF10BD10B500F04BF810BD10B500F04FF810BD10B500F04BF8034800F02AF8002000F02DF810BD2939000010B5024800F046F88C
:4038800010BDC046293900000220FF307047C0462B2070472B2070472B2070472B2070472B2070472B2070472B2070472B2070472B2070472B2070472B2070477047C046F2
:4038C000014B18677047C0460000002010B50400FFF753FE044A1368C0218B43A4011C431460FFF74EFE10BD0CE400E080225201014B1A607047C04600E100E08022520113
:40390000014B1A607047C04680E100E010B50400FFF7F4FF2000FFF7D3FF0020FFF7D6FFFFF7E4FF10BDC04610B511F05BFB10BD002243088B4274D303098B425FD3030A10
:403940008B4244D3030B8B4228D3030C8B420DD3FF22090212BA030C8B4202D31212090265D0030B8B4219D300E0090AC30B8B4201D3CB03C01A5241830B8B4201D38B03A3
:40398000C01A5241430B8B4201D34B03C01A5241030B8B4201D30B03C01A5241C30A8B4201D3CB02C01A5241830A8B4201D38B02C01A5241430A8B4201D34B02C01A52414E
:4039C000030A8B4201D30B02C01A5241CDD2C3098B4201D3CB01C01A524183098B4201D38B01C01A524143098B4201D34B01C01A524103098B4201D30B01C01A5241C3089D
:403A00008B4201D3CB00C01A524183088B4201D38B00C01A524143088B4201D34B00C01A5241411A00D20146524110467047FFE701B5002000F0F0F802BDC0460029F7D088
:403A400076E7704703460B437FD4002243088B4274D303098B425FD3030A8B4244D3030B8B4228D3030C8B420DD3FF22090212BA030C8B4202D31212090265D0030B8B4251
:403A800019D300E0090AC30B8B4201D3CB03C01A5241830B8B4201D38B03C01A5241430B8B4201D34B03C01A5241030B8B4201D30B03C01A5241C30A8B4201D3CB02C01A6A
:403AC0005241830A8B4201D38B02C01A5241430A8B4201D34B02C01A5241030A8B4201D30B02C01A5241CDD2C3098B4201D3CB01C01A524183098B4201D38B01C01A5241D0
:403B000043098B4201D34B01C01A524103098B4201D30B01C01A5241C3088B4201D3CB00C01A524183088B4201D38B00C01A524143088B4201D34B00C01A5241411A00D220
:403B400001465241104670475DE0CA0F00D04942031000D34042534000229C4603098B422DD3030A8B4212D3FC22890112BA030A8B420CD3890192118B4208D38901921127
:403B80008B4204D389013AD0921100E08909C3098B4201D3CB01C01A524183098B4201D38B01C01A524143098B4201D34B01C01A524103098B4201D30B01C01A5241C30855
:403BC0008B4201D3CB00C01A524183088B4201D38B00C01A5241D9D243088B4201D34B00C01A5241411A00D20146634652415B10104601D34042002B00D5494270476346C7
:403C00005B1000D3404201B5002000F005F802BD0029F8D016E770477047C046014B18687047C0465C1000200E4B70B500251E000D4CE41AA410A54204D0AB00F35898476F
:403C40000135F8E712F0B8F9084B00251E00084CE41AA410A54204D0AB00F35898470135F8E770BDC45F0100C45F0100C45F0100CC5F010030B50024A24208D0035D651CD0
:403C80000C5DA34201D0181B02E02C00F4E7002030BD002310B59A4203D0CC5CC4540133F9E710BD03008218934202D019700133FAE77047134A1088810703D08107890FFB
:403CC000401A001D11791030484381B25088820703D08207920F801A001D800040180A494030098980B2CA0701D0503080B2890706D504495422091F09785143081880B240
:403D000070470000AA0C0020B011002010B501F00DFF10BD10B501F00FFF10BD10B500F05BFA10BD10B50749044609780220002907D1204601F050FF002802D120460AF01A
:403D400089F910BD480E002070B504460120002C12D02368002B0FD0616800290CD0074D06222889208118462968FFF792FF6968606809780170002070BD0000B011002080
:403D8000FFB585B0002768460E9D07734F481C460078002802D0082009B0F0BD10990F9801900095029105A807C800F007F90028F2D16946264603AB84460873002C19D0A4
:403DC000002115E08A00B75A082F09D990198078002805D0083FB7521878401C187005E0002914D00027B75290198770491CC9B2A942E7D360460028CED10F98002809D03B
:403E0000109901F043FA002804D00120C4E701208446EFE701F090FE2D480021416081600599016021888180022D07D3A1798171A17AC171A1890181218A418100211EE048
:403E4000481C19E082008B00A75AE65ABE46BE4211D26F463E80B4461E190296B678BE7001967646E6521719029EBB78B3706646A652019EBE70401CA842E3D3491CA942AA
:403E8000DED3134822460C3000906846037B0799069800F01BF90028B8D168460B4C007B60700B480C3001F077FE0028AED1084907480C3107F0A4F90028A7D107F0BEF9F8
:403EC0000028A3D10121217066E70000A40C0020A4110020F8B5054636480F460078002802D002242046F8BD002F60D000243249002D16D02A89D0070DD02868002808D0FB
:403F000003881B3BE12B04D24088FB2801D81B2801D2012409E0900707D56868002804D1F7E70020088108604860002CDAD122482E8906811F481B21801D018041800421D9
:403F400001711C490020891C0870F00705D019480622801D2968FFF79CFE1749B00703D56A68144812788270124D0E46AD1D281F0D60486001F056FE284601F045FE308908
:403F80000DF0B2FD30890CF09BFF28880CF09EFF30890DF013FF03461033FFF78BFE1F21C018890140183880A91F88809AE7012498E70000A40C0020B0110020FFB5844614
:403FC000384F1C460020BB883F78054602460646002F11D100290ED0029999420BD36146002908D0002C06D00A99002906D02E4B0B99994202D2012004B0F0BD002144E094
:40400000AB001F19BF78002F3BD0E35A002B38D07B43591889B22B0000F04AF8050410161C253100A7782388BC46FF27233BEB37BB4222D26346032B1FD322E0A388002BD0
:404040001FD0302B19D31CE02389002B19D0282B13D316E0A289002A13D01346134F233BBB420AD20DE0268A002A0AD033460F4F233BBB4201D2964203D901200EE000206C
:4040800001E000280AD16D1CEDB2099B9D42B7D31C2463435B1802998B42ACD89642AAD8AAE70000A40C002079020000BAFF000030B47446641E2578641CAB4200D21D4654
:4040C000635D5B00E31830BC18470000FFB583B0002469460C801F4606468C80002806D00598002803D004983043800701D0012466E0002FFBD03449049809888842F6D3BD
:40410000FFF7BAFBFFF7A8FB00F012FC002855D100F07AFD002851D12C49084601F0EAF805042D0C4AD12A480499066081800021C18007810C98007AC00704D0684601F093
:4041400014FD040007D10C98007A800703D501A801F014FD0446BF1DFEB2002C20D13146059800F05DF804001AD10DF035FE040016D16A461088928808368518144AF1B296
:404180009088D288AEB29319984207D3401B801A80B201F09FFB050007D000E0FF25012400F05EFA002D04D008E0F8B200F01CF9F6E700F081FA07490120087000F0CAFB50
:4041C000204607B0F0BD0000A80C00200D430000BC110020B00C002010B503480078012801D101F019FA10BDB00C002070B5084B0446DA889E8803205518B54206D81868A9
:4042000080182060D8884018D880002070BD0000BC1100200148008970470000BC110020F0B587B007460D4600208900009006916846FFF7DBFF844600285DD130480099AB
:404240000160002117E02E4B88001A680629115406D22C4C0419667882185670628805E0C419203CA67A8218567022891B68C018491C4280C9B2A942E5D300242DE0601C83
:40428000C2B2059025E01E4FA30039689600581840887118039604904E88B04217D938466F46FE80B6464F786E4677710297049F4F800168039F5E18767879184E700168C1
:4042C000764659184E800068029F18184770521CD2B2AA42D7D30598C4B2AC42CFD36046002809D168460699FFF780FF8446002802D1054900980860604607B0F0BD000021
:40430000B40C0020F05F0100B80C00207047000010B5002809D005494A68002A05D0011F08788000105801F083FA10BDB40C002010B50446FFF76EFFC0B2801DA0420CD308
:4043400007484068002808D0A100405801F0E2F9002801D00470001D10BD002010BD0000B40C0020F8B516460D460446FFF752FFC0B2801DA04203D20020C0430090F8BD02
:40438000B2B2E9B2684601F0EBF90099481C03D0024AA000526811500098F8BDB40C0020F8B50746FFF736FF801DC6B20A49002005460C680DE06178002907D06188B94261
:4043C00002D32078FFF7B4FF002804D1241D6D1CEDB2B542EFD3F8BDB40C002010B5002801D0FFF795FF10BD70B506460948002504680BE06178002905D062882078121D18
:404400000023FFF7AFFF241D6D1CEDB2B542F1D370BD0000B40C0020FFB581B00A9F16000C4620D000F0F2F8054604281BD0002F0CD03846FFF7B4FF20492A01511848608B
:40444000002810D03A460499FFF723FC1B4928010E504618778101980570200406D47D20C000444304E0FF2005B0F0BD6404640C00F0BAF80746042807D000F04FFAA04287
:404480000BD800F04BFA201A03E0204600F0AAFA0020F06035720020E6E700F03FFA009000F0B6FA00980121001B009000F0ECF802493A0151180098C860E6E7C8110020C2
:4044C000F8B5060116483418217A042903D0E068002802D017E00020F8BD00F01FFA054600F096FA00F0A0F804280CD001010C480F18F8680021451900F0C6F80020F860CF
:40450000284600F06FFA6068054D002801D0FFF765FF042020720020A8516081E060DAE7C8110020FEB500266A46304601232549050169180D7A042D02D0C96800291BD0B6
:4045400000211154401CC0B20428F0D300246846005D002830D01B48210108184189476805680291002101604160042241810272C160002E02D015E01354E3E700F054F881
:4045800004280ED001010F4808180190C6680021304600F079F801980021C160304600F021FA0126002D07D038460299A847002F02D03846FFF712FF641CE4B2042CC6D3CD
:4045C000FEBD0000C81100200EB5002005216A460090118150810348694600680EF061FA0EBD0000BC0C0020074A0020010189180B7A042B02D0C968002903D0401CC0B258
:404600000428F3D370470000C81100200549002002015218127A042A03D0401CC0B20428F6D37047C811002030B50A4B04200A4C00210A011219157A042D06D0D268002AF8
:4046400003D09A4201D808461346491CC9B20429EFD330BDFFFF0000C81100207047000030B50020074C05460423020111190B72A5504D60401C4D81C0B2CD600428F4D3CF
:4046800030BD0000C811002030B5094C00231A011219157A042D04D0D568002906D02D18D5605B1CDBB2042BF1D330BD2D1AF7E7C8110020002070471CB5002469460C702E
:4046C000142001902346054A05480EF0EFF904480068401C00D1FF2420461CBD35470000BC0C00203EB5124A0146FF2000230124126800290DD0012914D0042908D10420AE
:404700006946009308814B8110460EF0CAF980B23EBD6846009304814381694610460EF0BBF9F4E768460093048143816946EBE7BC0C002070B545890468416800890300FB
:40474000FFF7B6FC08280509091E22282628002005F008FC1EE0022908D0C8B22A4621460CF002FB2046FFF739FE13E002202A4621460CF0F9FA2946204600F00DF809E00F
:4047800000200DF08DFE05E02046FFF7CBFE01E0FFF794F8002070BD014B0022DB681847C00C002070B5448905680089022803D0032809D0FF2070BD2246094C0023A4687A
:4047C00029460120A04708E0FFF7A4FA241DA2B200232946022006F0C6FB002070BD0000C00C002070470000024800214160018041807047C00C002070B50C46002186B017
:4048000016460391012802D0022859D116E003A9012006F0FDFB01281BD1039D324621462846FFF736FA0095287801900220694608814E816846FFF7B5FF41E0214D002B5F
:40484000686809D0049004A9022006F0E1FB01281DD0022006B070BD002812D0298840182146FFF716FA28880024801980B228806988091D884206D12C801348FFF792FF32
:4048800003E00320E6E788421AD96C6018E004986860E278A378110219430B4A698000231060E3565360032313815181A1788170E178C1706178417021780170042028801F
:4048C0000020C7E7C00C0020081200203EB515460C46022803D004280CD000203EBD0091019002206946088107484A8100680EF0D8F807E00CF038FA044B0022DB68294600
:404900002046984701203EBDBC0C0020C00C0020014AD16090607047C00C0020034801688068081A0A214843000970471412002010B5FEF795FF4C2204490548FFF7A9F9CB
:4049400003490120C870002010BD00000C6001001816002010B5FEF77BFF10BD70B5134C2368002B08D0207B1149C20705D04008400020738868A08070BD88680B4AA1887E
:4049800080B29268814203D90A4D691A091802E0814202D2411A5118A160A080A0689842EAD30EF09BF800F013F870BD14120020C0102E40FFFF000010B508461946FFF791
:4049C000A7FF10BD704710B5FFF780FF10BD000003480021016041608160C1607047000014120020024610B5FF20002A0CD0FFF7EFFF064C0321207B0843207310010A21D8
:404A0000FFF71CF82060002010BD00001412002000B504480A21806848430209FFF7D8FF104600BD141200200248007B8007C00F704700001412002010B54B4908680028E0
:404A400002DA4A4B01221A70022290430860484800694549C00B4031096A0246C907C90F0A4259D0012000F097FA3F480E216C30FEF74AFE3E4820218430FEF745FE3C48B6
:404A800014219C30FEF740FE3948FF21C131A430FEF73AFE3648FF212F31B030FEF734FE33483449BC30FEF72FFE31483249AC30FEF72AFE30492E48491CB430FEF724FEE7
:404AC0002B482E49B830FEF71FFE29482C49CC30FEF71AFE26482B490830FEF715FE24482949A830FEF710FE214828498830FEF70BFE1F4826498C30FEF706FE1C4819214F
:404B0000C9029030FEF700FEFEF700FEFEF7BCFEC0B2022812D01FE000290BD0002101420AD0114801216030FEF7EEFD0120FEF78BFE97E70121F2E7FF2010BD15491648EB
:404B4000FEF7E2FD14481549001DFEF7DDFD124800210830FEF7D8FD54200449C043891C0870002010BD000000F02E40D00C002000002E40320300002F3F000031020000D2
:404B800010520000EC160000FA12000031D000003AE300009956000080012E40F80F000070B50646581C80B245086D00002408E0304600F0C1F81055000A1119A41C487075
:404BC000A4B2AC42F4D3D80705D0D0182038D15CC47FD454C17770BD30B50A4C002100195B1E07E0541864782502545C2C430480891C89B29942F5DB994201D1515C01806C
:404C000030BD000000102E4010B5FF2000F0C4F90F49FF2048700E481021801D41800121417001700A490020C91C4870FFF704FF04000AD100F010F907210648FEF762FD75
:404C4000044807211830FEF75DFD204610BD0000D00C0020CC112E4070B5002405465B1E0AE0284600F068F8010A161971702D1D1055A41CADB2A4B29C42F2DB9C4203D15E
:404C8000284600F059F8105570BD000070B500210A4D5B1E0AE0541864782602545C344346193480001D891C80B289B29942F2DB994202D1515C4019018070BD00102E4052
:404CC000F0B50599091FCFB200217E1E0BE0541864782502545C2C43164D45192C80001D891C80B289B2B142F1DBFC0712D01C78515C24020F4A0C4381180C809C785D7835
:404D0000001D210280B2294384182180001D80B2D9780CE059781A7809021143054A84182180001DD9789B78090280B2194380180180F0BD00102E4001494018008870473F
:404D400000102E4010B50B490020487000F084F8002000F047F9002000F034F907210648FEF7D0FC044807211830FEF7CBFC002010BD0000D30C0020CC112E4010B50B46CF
:404D8000062812D006DC01280CD0032801D1FFF7D9FF10BD0A28FCD00B28FAD105480078107010BDFFF730FF10BD1146184600F035F910BDD60C0020F8B5244DAC6A012766
:404DC000A007234E002816DA307806280ED1286A384328621F480069F903084381B21D481030FEF791FC042000F0D6F8174802212830FEF787FCE00718D000F01FFF01288C
:404E00000FD1002000F06CFF062000F0C5F81049FF20C91E48707078002802D1686B384368630A4801212830FEF76CFCE0050BD53078042802D1052000F0AEF80348FF2176
:404E400001312830FEF75EFCF8BD000040F02E40D30C002000002E4010B503212348FEF753FC0120FEF7ECFC20483038406A204C80076178800F890001431C480C38FEF7C4
:404E800043FC6078002808D0401E022181401820FEF7BEFEC000083800E0B82081B21548FEF732FC1348032109021438FEF72CFC10481149B830FEF727FC612189010F483D
:404EC000FEF722FC0D480321001FFEF71DFC0C490C48FEF719FC0B480B496038FEF714FC084801218838FEF70FFC10BD70F02E40D60C0020D8102E4090890000041E2E4034
:404F0000FF0F000058122E40209000000848017806290BD140780749002803D1486B400840004863C86A01221043C86270470000D30C002040F02E4001480078704700007F
:404F4000D30C002000B50300FFF7B2F8080D050D0B070507090D012000BD032000BD042000BD022000BDFF2000BD0000074A9168D26889B2064B92B2994204D105498A4207
:404F800001D1012100E000210170704780002E4033D000003FE3000010B50446FEF75CFC072C01D9FF2C01D102480470FEF750FC10BD0000D30C00200149487070470000D7
:404FC000D00C002010B5064A012805D01921C9021046FEF799FB10BD1D21C902F8E7000090002E4010B50A4A141D012808D009491046FEF789FB08492046FEF785FB10BDA6
:4050000004491046891CFEF77FFB0349491DF3E788002E4031D000003AE3000070B50C460546FEF731FCC0B202280E49287804D0FF2810D04C280CD810E0FF2809D10A4A2A
:40504000D0680004800F032801D0087807E09069000A553803E00878207070BD4F382070087070BDD20C002000002E40F0B50122002834D0002932D00424420600D00524A2
:40508000792342065B06D21800D0641C034600221EE00C2516466E43124D00277519AF72104F002ABB51696007D0661EB24209D10D4E86197606760E05E05E06760E8027A0
:4050C000BE1B00E080269B198919521C2E81D2B2A242DED303480549006B002288611046F0BD0000A014002079020000DC0C002018B50020694608700A48006900280ED087
:40510000132149014018047E684604704F21C900054800F05BF8A04201D0012018BD002018BD0000DC0C002024120020074900200C2242435218927A012A05D0401CC0B2C9
:405140000628F5D30020704701207047A0140020F8B50F000446164609D01A4D1A496868A04202D94018A04201D38E4201D90120F8BD39462046FEF77DFD002820D03246B2
:4051800039462046FEF785FD0E49F0B2012620318E7600210C220B4653430A4A9A1813895568EF18A74207D9641B1B1B9672834206DAC01A1469C0B2491CC9B20629E9D3C3
:4051C0000020F8BDA014002079020000034610B50020024604E09C5C2018521CC0B292B28A42F8D310BD000070B500F05FF8084C064A216907480D46FEF74BFD0549284644
:40520000FFF734FFFFF774FF207070BD79020000DC0C002024120020002070470020054A002902D0012902D002E0906000E0D06000207047DC0C002070B5084C1546084626
:405240000549E26889182A46FEF723FDE0684019E06028B270BD000024120020DC0C00203EB50A226946FFF7E7FF044606480A2200686946FEF7FEFC002802D00020C04399
:405280003EBD20463EBD0000E00C0020002802D0044A914201D2FF20704703494A6108610020704779020000DC0C0020024800218160C16070470000DC0C002070B5074C64
:4052C00015460548A26880182A46FFF741FFA0684019A06028B270BD24120020DC0C002010B503490A220968FFF7E8FF10BD0000E00C002010B50F4A002313600E4A136015
:405300000E4B18600E4801600E49012008600E490860000290600E490C4808600D4914300860FF381538506000F0BCF800F0CAF9002010BD100D0020F80C0020240D002015
:40534000280D0020140D0020040D0020E8150020080D00201C0D0020014610B50020002910D0094B1A689C685118A14209D25868196080188A0704D08A07920F891A091D64
:40538000196010BD002010BDF80C0020F8B50024164E671E321F3D463168136806E01422624310328A58521C1BD0641C9C42F6D36A1C14D02C461422544322460C32885068
:4053C0000C214843FFF7C8FF3168002808510AD031680020103408517068401C70602846F8BD2546E4E73846F8BD0000080D0020F3B50026F64381B000281BDB1E490968FB
:40540000884217D80299002914D01B4F142204463F1D54432546396810354859401C09D0FEF71AFA38682F1F4159C359994203DBFEF70EFA3046FEBD2146083100914658A4
:4054400001590C20704308180C220299FEF721FC0948761C001D0068C159B14200D100260549009A091D865008684159491C4151FEF7EEF90020FEBD040D0020002803DBB9
:4054800007490968884202D90020C043704704491422091D096850431030085870470000040D0020F0B500200D4A451E0346171F50600FE014260146714314680E1DA3510A
:4054C0000C461668083433511668083435511468401C635039688842ECD30020F0BD0000080D0020F3B50026F64381B0002841DB2349096888423DD8029900293AD0204FB0
:40550000142204463F1D54432546396810354859401C2FD0FEF7A0F93868415900292BD0211D009146580C21005971430F46C1190C220298FEF7ADFB11480021001D006885
:40554000761C00590C34C0190160416081600C48001D00680159B14200D100260849009A091D865008684159491E4151FEF770F90020FEBD3046FEBDFEF76AF9FAE700009A
:40558000040D0020FEB504460D4600201E49089E0860471E009001900290002C11D0486885420ED2002A0CD0002E0AD0642E08D808460C3001681C2068430C18207A002819
:4055C00001D03846FEBD0120226020721846FFF7DDFE6060401C13D06681A6810A4827610C3067610179A94200D205710021684601810A462846029B00F040F82846FEBDA8
:4056000000202072DDE70000100D002038B50124009400F039F838BDFEB50027164EFF433D4600240EE01C20316860430818017A002906D04068FFF721FF002801D02546B2
:4056400003E0641C3079A042EDDA681C12D01C2130684D434419FEF7FFF869466068FFF741FF0546FEF7F4F8002DD9D1216868468847D5E7FEBD00001C0D002038B50024DA
:40568000009400F001F838BD1FB500220C49541E0A60002811DB496888420ED808491C220C31096850430818406801A9FFF7A0FE401C02D0002004B010BD2046FBE70000EF
:4056C000100D0020F0B50021114A4D1E174611710C3F0B46BD6016E008461C2460431668041D355114680646235014680836A3551468361DA353044616680A343353183077
:405700001468491C255078688142E5D30020F0BD1C0D002038B500210091002811DB0F49097888420DDA0D4D04010C3529680859002807D0201D0818694600F06FF9002848
:4057400001D0002038BDFEF787F828680F34015D491E0155FEF77CF8009838BD2C0D0020F7B582B0002502986E1E06602E48D21C024017462D4A2C4610460C38017810688C
:4057800005E02301C358002B0FD0641CE4B28C42F7D3711C28D03401211D40180191039900F02AF900281FD101E02646F1E71F48016820460C300F521C480399026820469C
:4057C0000E30115419480399026820460F3011540398784300F0A0F8144900280968085102D00024009011E001251AE00F48016801980818009900F02CF9002801D001258B
:4058000002E00098C0190090641CE4B203988442ECD3002D05D10298066004480179491C0171284605B0F0BDFCFF0000380D0020F8B50D4600216A468C461180002839DB0F
:4058400023490978884235DA214B04010C3319680A59002A2ED020460C300B5A801C0E5C184670438018954224D3854222D2002006E007465F43BF18AF4206D0401CC0B206
:40588000B042F6D36046002814D0114E271DC8190C366A46294600F006F900280AD168460088012808D030682946C01900F0D1F8002803D00120F8BD0020F8BDFDF7CCFF6F
:4058C00030680F34015D491C0155FDF7C1FFF3E72C0D0020F8B50F46002400F031F8002817D10C4900220B460C334A600EE021011D680E466A501D680C36AA53B61C1D680F
:405900000F31AA551D68641C6A54E4B2BC42EED31A71F8BD2C0D002000280BD0C01C074A81085068890053884118994203D893685160181870470020704700002C0D0020D0
:40594000F8B5064600200F4D009029700C0121466846FEF74BFC00280CD129460C3100980860301B001F84B221466846FEF73EFC002801D0FF20F8BD6C800098A86000201D
:40598000F8BD00002C0D0020F8B5002827DB19490978884223DA174C05010C342168485900281CD028460C30085A009028460E300E5C401C0E5420682F1DC01900F064F808
:4059C00000280CD12068002445590EE0094829460C300068C01900F03CF8002801D00120F8BD00982D18641CE4B2B442EED30020F8BD00002C0D002030B50D4604000BD04B
:405A0000A800FFF789FF6060002805D000202570C0436080002030BD012030BD70B50D46040005D0002D03D00220205E002801DA012070BDFDF710FF0221615E6068890058
:405A4000405828606088401E6080FDF701FF002070BD70B50D46040007D0002D05D002212078615E401E814201DB012070BDFDF7F3FE6088401C00B26080616880000D5024
:405A8000FDF7E6FE002070BD10B5040009D0227800216068FEF706F90020C0436080002010BD012010BDF0B500231D46002802D00224045F0AE00120F0BD46689F00F659C8
:405AC0008E4201D1012503E05B1CDBB29C42F4DA15700020F0BD00000148007870470000400D00207CB505460024FEF713F9A8796946087000A8062229460130FEF7C9F805
:405B00000021684604F0F4FC0C2806D0072806D01F2806D0122806D006E0022404E0042402E0272400E0012420467CBD01480121417270472417002010B500F05FF9FFF75A
:405B4000FBF9FFF7FFF910BD70B504460025FEF7E1F8002C06D0A079012803D8214602F081FC00E00125284670BD01460120002902D05020088000207047000001460120E4
:405B8000002905D003485422007850430880002070470000420D002010B502460D49FE204870032410460DF09FFA002810D10DF043FA00280CD105F087FA002808D100F052
:405BC00013FB002804D104F039FF002800D10024204610BD400D002070B50025044600280ED0A07901280BD8FEF794F8A0790028204602D002F0C8FF03E002F09DFF00E0EE
:405C00000125284670BD0000014610B50120002904D006220248FEF73CF8002010BD00004C0D002001460120002903D0087802490870002070470000420D00200148007AC8
:405C4000704700002417002038B504460120002C20D0617801291DD800290BD0FF25E535FEF758F80C4828180088C0B22070072803D00EE0FF25CD35F2E7002069460870CB
:405C80006846FFF773F969460878012801D108202070002038BD000000102E40014A002192681047400D002008B500226B461A7026280CD0094A342852680BD0352805D17A
:405CC000900703D50021352005F0DAFA08BD19462620F9E7D007F9D03420F5E7400D0020014908727047000024170020F8B504460120002C26D06178012902D92278092AB4
:405D000020D8002905D0FF25E5352078092803D004E0FF25CD35F8E708202070FDF7FAFF2078114F114E08280DD00020FFF75AF970780128207810D00D4969180880FE2032
:405D400070700020F8BD0120FFF74CF90720B8810549203188800120F2E7B8810248217820308180EBE70000C0112E40400D002000102E4070B50E46050001D0002400E055
:405D80000C4C002C11D0E28A500609D5D107C90F022002F08DFFE08A40218843E08204E0D107C90F012002F083FF3146284602F067FC70BD84160020F8B5054600200446EA
:405DC0000D4E009013E022466946284600F0E0FF0098002801D00DF069F9A878214602F0A9FAA878214602F097FA641CE4B2308AA042E8D8F8BD00005017002038B51E4C56
:405E0000FFF79AF8042813D0052811D0062812D003282AD007280AD100206946087002460120FEF7ABFFFFF787F80128FBD138BD00F077FB38BD02F0D3FA00F072FB02F06B
:405E400033FB8007800F0228F4D10C4841880029F0D05B21095D0029ECD101210170A07D0140022002F024FF38BD02F0BDFA0120FFF792F838BD000084160020660D002078
:405E8000F8B50646002402F081FF0546304602F097FF03460A480021068A0DE001228A401046174628401F40002803D0002F01D1224394B2491CC9B28E42EFD82046F8BD31
:405EC000501700201CB50020694648706846FFF7BBFE01AA69460A20FEF750FF6946042008561CBD70B50D4601F038FB04000BD02079002808D0FDF70DFFE178A0782A469F
:405F000002F044FC002070BD022070BD0148007970470000581600204030C07E002800D00120704700B500F001F800BD902148430749084A40186030417F491CC9B2417795
:405F4000D289914201D300214177C8B270470000641600205017002013B501F0FFFA04000BD001F09CFE002807D0214601AA0A310620FEF703FF00201CBD02201CBD00007B
:405F800010B50C4601F0EAFA00280AD001F087FE002806D0224604490A20FEF7EFFE002010BD022010BD000045160020F3B581B0074601460026029802F0E0FE0446002FF1
:405FC00001D0002500E0154D002D21D0284601F0FBFA032C04D13946029802F02BFF06463846029902F098F9032C06D0002C10D00121384601F0EEFB03E03146384603F080
:406000001FF9284602F07CF80221284602F092F8FEBD3846029902F07FF9FEBD8416002010B5044600F066FA002804D103F0DEFD002801D00C2010BD2078611C02F0ACFCE9
:40604000FF2801D01F2010BD02F0F2FCFF280AD02178621C02F0EEF8044821780068026B601C904710BD072010BD00008C0D002010B503F0BBFD002801D00C2010BD02F071
:406080006DFC03480068C06A8047002010BD00008C0D002070B50D46044610210CF046FF1021601806460CF041FF334610221946204603F0C9FD102130460CF037FF0220A4
:4060C0002870204604F0F0FB70BD0000F8B504464078217802028006870FE0781143A67809050002090D0643084601F037FA00210546F2B2002812D0002C10D0022F0ED050
:40610000032F0CD0002A0AD00279092A07D0002A05D0134A5A23527F1B5C9A4207D82889002104F0F6FA20460CF0C0FFFF21002914D10C4822460068294643693046984753
:40614000C0B2FF280AD128464030817EF2B2491C8176FF232146284600F0E3F8F8BD000018160020A80D00200020704710B5044603F03CFD002801D00C2010BD2078611C1B
:4061800002F00AFCFF2808D002F03EFB044821780068426B601C904710BD1F2010BD00008C0D002010B500F06BF904F047FC002010BD10B5044600786178E2780843A17883
:4061C00011430843217908436179084305D003F0FFFC002803D00C2010BD122010BD204602F0D2FC002010BD10B5FDF74DFB02F0EFFD044803F066FD02F010FB012000F09E
:4062000003F810BD2C160020F1B586B003A8009005A8019028489F22017B114001736846FDF792FD002845D169460989C90705D0224806990068C2686846904769460989B7
:40624000890706D5002835D11D480068816A0698884700282ED11B4E0025757075737571F575357675767575B570F570B5713746F5730120D03738731F20F880FF21304659
:406280007972A0300176457600F0CAFA00242046069901F0AFFC002803D1641C2406240EF5D0FD720749BD72B573C0310D704D704D600D7207B0F0BD18160020A80D0020E7
:4062C0008C0D00206416002070B505460E46084602F05CFD0446304602F072FD0121A9400A46224001400A4301D0012070BD002070BD10B50446084602F062FD0121A14065
:40630000014201D0012010BD002010BD10B5FEF713FE032804D102F067F80120FEF73CFE10BDFEB51C4616460F46054601F0E8FEA878FFF7F7FD02460190334639460094DE
:40634000284600F00DF8002808D1A8780199FFF711FDFF2C02D138460CF0A8FEFEBD0000FFB585B005460E980C46FF2810D02B49C00009680A5840180179C0795278814250
:4063800001D9012601E09006860F6846038108E06078A1788006860FE0780002014368460181284601F086FC070007D021462846079A00F081FC384609B0F0BD304600F0F0
:4063C0002FFD04AE0346039002AA29460096204600F0BBFB3C20405D002818D0284601F069FC012813D0684600890096C0B20190A878231DFF22079902F0F6F86846008945
:40640000039BC2B2A878079902F03AFCD3E7684600890021C0B20091E9E70000A40D0020F8B5002600253046FFF72AFD07001DD090201149704340186030447F12E0601C57
:40644000FDF7FCFACCB23846E040C007C00F07D02146304601F058FF21463046FFF7A6FD6D1CEDB20548018AA942E8D8761C3606360ED7D0F8BD00006416002050170020D4
:4064800010B502F0CBF90020FFF7BEFE0CF0A4FE002010BDF8B5002400F0B2F80123012800D10124104F00203E4620360425082203E0002801D0002100E0314609790029AB
:4064C00007D001290BD002290BD0114681402143CCB2401C0006000EEBD07C70F8BD1C43F7E72C43F5E700006416002010B5FFF7D1FF10BD10B5044604F0F2FB002802D18F
:40650000601C00F001F810BD1CB500240094062269460194FDF7AEFB002800D1122420461CBD10B5FDF729F80446FEF705FD012809D0FEF701FD022805D0FDF7D5F82046F3
:40654000FDF71FF8EEE72046FDF71BF810BD10B50B4681791943817103D08078114602F05DFB10BD10B582798A43827102D1807802F068FB10BD000030B50C4C0220A28A72
:406580000B4B9978002901D0022906D11D785B78EB18282B01D9032002E0032900D101205105490DC0020143A18230BDC0112E405C0D002000B500F029F8002807D0012845
:4065C00005D0032801D0042801D0002000BD012000BD014600B50020C90701D000F010F800BD014600B50020C90701D000F008F800BD00000148006870470000540D00204D
:4066000001480088000A704720102E400448008B410501D5042070474007800F7047000000102E400148406870470000540D00207CB50446002568460570200610D5FFF764
:40664000E5FF01280CD101A801F0D4FE6846007900F036FB012001F0BBFD0220FFF746FF600712D50C48017901290ED10571684601F0C0FE6846007800F056FB0220FFF7DE
:4066800035FF00212620FFF70FFB044800680169204688477CBD0000600D00208C0D002010B501460A4A007800241070FFF7A8FF0128084603D002F0D3F9204610BD00F029
:4066C000E7F80400F9D1034801210170F5E700005C0D00202417002070B50446FFF790FF002801D00C2070BDA27B01211F48002A827801D00A4301E05208520082706279C7
:40670000012A14D0C17849084900C170184D2868016820468847207901280CD06188208803F012F82080207904280FD015E0C2780A43C270EAE72868C168E01D8847E01D42
:4067400002F00EFA0B48008D208006E02868C168E01D8847E01D02F003FA074920798870204602F08BF9002070BD0000641600208C0D0020181600205C0D002008B50178DE
:40678000FFF73EFF814201D10C2008BD002914D0072069460870FFF70DFF012807D10121684600F0E5F8012801D0092008BDFFF7E3FE02F097F9012011E0FFF7FBFE0128BA
:4067C00006D1684601F016FE6846007800F0ACFA02F07EF9FFF714FF0028FBD10220FFF785FE002008BD000010B501460A4A007800245070FFF704FF0128084603D002F07C
:40680000EDF9204610BD00F065F80400F9D1034801214170F5E700005C0D00202417002038B568460CF0D8FB002801D01F2038BD01210098C9020180418000250571457197
:40684000857107214173857302F018F9009C202200212046FDF726FA25702A460021601CFDF720FA204602F0FBF8204602F0B6F900980CF01BFC062200210448FDF712FA90
:4068800002480C388560002038BD0000600D0020F8B5044600250D4800950078012806D068460CF099FB002803D007250CE00C250AE0074E009830602278611C401CFDF7F6
:4068C000E8F93168207808702846F8BD24170020540D0020F8B5044600250D4800954078012806D068460CF077FB002803D007250CE00C250AE0074E009870602278611C34
:40690000401CFDF7C6F97168207808702846F8BD24170020540D00200346084800B5834209D8184600F01AFE002804D00089984201D1012000BD002000BD0000FF0E00000D
:40694000074A9179491C8906890E917138220A4092014907090E1143084302490840704764160020FF0E0000C006C00E70470000F8B507460E4600240D4803E0002C01D00F
:40698000002500E005462979002905D0641C2406240EF3D00020F8BD0021204601F02AF92E712046FFF7CCFF28813C700120F8BD8416002010B503F07BF90222002100F0CC
:4069C00003F801F0D7FE10BD10B5094B40074907000F090F185A595A40185043C0086421FDF72CF8002800D1012080B210BD000058600100F7B53D20405C88B015460C4661
:406A0000002802D02878042802D200200BB0F0BD6946087200262046FFF77EFA012800D00126204603A938300191009023460327A17E34333246206A03F05EF902A80899A5
:406A400000900B46019120463A4603A9243003F0DBF802466846007A2870204601F0B6F81046D3E7FFB587B00C4605461078694608723D20005D1746002826D000262046E0
:406A8000FFF74AFA012800D00126204603A93830019100902346A17E34333246206A03F02BF902A80090291D019120462B1D03A924300A9A03F0A8F802006846007A3880FF
:406AC00002D1204601F082F810460BB0F0BDF0B505463C20405C89B016460C4600280CD0307869460873002806D000272046FFF713FA012803D003E01F2009B0F0BD012755
:406B000003200890204604A93830019100902346E17E34333A46E06903F0EEF86846007B03A928180290009120462B46019504A92430089A03F09CF802466846007B30704C
:406B4000204601F04DF81046D7E7FFB505463C20405C89B016460C46002810D0084601F0A9F801280BD0308869468883002809D000272046FFF7D0F9012805D005E00020D9
:406B80000DB0F0BD0220FBE70127204603A93830019100902346E17E34333A46E06903F0ABF8291D2B1D07A8129A6D4607C5204603A924300C9A03F05BF802466846808B5A
:406BC0003080204601F00CF81046D9E770B50D460446FFF7A1F901280AD0E87AA97A00020143A07801F0C2FC012808D0002070BD00222421204602F0F9FC242070BD2821D1
:406C00004C200155204600F0B1FB282070BD0000002801D0002000E003484030C07F012800D0002070470000841600200146002049070ED50021084B03E0002901D0002291
:406C400000E01A461279022A04D0491C0906090EF3D0704701207047841600200146002049070ED50021084B03E0002901D0002200E01A461279022A04D0491C0906090E4F
:406C8000F3D07047012070478416002010B5044680346068002803D00CF01CFA0020606010BD4030417070474030817070474030017070470171704792001018C16670473A
:406CC00070B53C2501F09CF9040004D020460021433001F0FFFBFF222946204600F0E8FB002C02D0A07801F00DF970BD10B5002801D0002000E00348002802D0008903F049
:406D00004FFD10BD8416002010B5002801D0002000E00448002804D00179072901D100F047F810BD8416002010B501F069F9002802D0807801F0E6F810BD002070470000CB
:406D400070B50546008A00281ED01049F122097B1140C90618D5294640314A8A098A521C4A4392B2D10800D10121540801E0621A94B2A042FBD9FEF7AFFE012804D1298AAC
:406D8000A878224601F0B8FC70BD00001816002010B50023054C0B60248A944204D992001018C26E0A60C36610BD00005017002038B5044600200090A079002814D14020E8
:406DC000015D052901D00E290ED168460CF014F9002809D12046009902F0E6FB03481021428B2046FFF7B3FB38BD00001816002010B50B4604460146184602F04FF8002899
:406E000002D020460CF05CF910BD13B5044601AA11460620FDF7B2FF6846818861811CBD002800D10220704770470000F8B504462346401D543300909A1EA078911E01F0DE
:406E4000F5FA25464035A88A298A8000FCF7F6FD401E81B2688A884203D96982A07801F061FF698A8C20015120460021433001F031FB27480088E88102F01AFFE989891CF1
:406E80008AB26179FFF7A0FD01F074FC02F010FF2A8A6179FFF798FD074601F05FFC688A002806D01B49088A032212021043088202E0002001F02AFF1648803801886E8A66
:406EC000002E0CD0304648431349FCF7A1FE0004000C01D0401C80B21049488002E00F4800214180288A704381B2A07801F084FEFF2228374932B9B21346204602F028FC90
:406F0000E98AA07801F0F8FDA07801F025FAF8BD80102E40E0112E4071020000660D00207FB504468034616805460E46183108226846FCF7AEFE31462031082202A8FCF7B7
:406F4000A8FE102168460BF0F1FF6068102108300BF0ECFF60682B46083024331022694602F072FE7FBD10B504460821FFF7FAFA10212046FFF7F6FA207905281FD00628C1
:406F80001DD008281AD12189002003F081FB072020712046FEF7C0FF014620464030012913D00E21017000210176204600F0BCFF2046FFF76BFE2046FFF7C2FE10BD2089F4
:406FC0000122002103F048FBE1E70521EAE70000FFB581B01F4604460821FFF7C3FA10212046FFF7BFFA2079082803D0092804D0042203E00422012501E009220025204615
:4070000000F044FE264600204036307022712046FFF73CFE0398002D02D0012808D00BE001280AD120890022029903F015FB04E02189029803F02CFB012700203076012F00
:4070400004D0204600F070FF05B0F0BD02983073204602F0F7FA054605480121428B2046FFF775FA002DEFD109202071ECE700001816002070B50C460546FEF74DFF012849
:4070800009D108212846FFF76DFA0023012221462846FFF79DFF70BD10B5044600F0F6FD2046FFF7F3FD00214034217010BD70B505461A24FEF730FF012809D1082128468B
:4070C000FFF750FA0023012221462846FFF780FF70BD0000F8B50446002000900E4668460BF08AFF002801D00D20F8BD8420005908212030009D00F02CFA2046042138306F
:4071000000F027FA002E02D1204600F0FBFD2946204602F0D4F90E480821428B2046FFF716FA204600F071FF25464035002808D0204600F023F8002801D0092028700020B2
:40714000F8BD08202870204600F0DAFFF7E7000018160020014610B540310A460978082906D0092907D00A2901D100F091F810BD0B20107010BD00F001F810BD70B50446F9
:40718000007925464035052805D0062803D008280FD00C2070BD03220621204602F026FA0D480821428B2046FFF7D1F91120287010E006202873204602F044FA0646AA8A46
:4071C0000A20424301212046FFF7C1F9002E01D109202071002070BD1816002038B504460020009068460BF007FF002801D00D2038BD2046009D00F0C3F9082020712046D4
:4072000000F080FD2946204602F090F900213D2001550F2040210855204600F071FF002038BD00B5024600F031FD10214032117000BD10B50446FEF76FFE012809D0402026
